:100000000C94A5000C94CD000C94CD000C94CD0064
:100010000C94CD000C94CD000C94CD000C949F0654
:100020000C94CD000C94CD000C94CD000C94CD001C
:100030000C94CD000C94CD000C94CD000C94CD000C
:100040000C94B6020C94CD000C941C080C945F0820
:100050000C94CD000C94CD000C94CD000C94CD00EC
:100060000C94CD000C94CD0053544F505045440097
:1000700053544F505045440042616420416E7377A1
:1000800065720053544F505045440054696D656F7C
:10009000757400504C4159494E4700536574757052
:1000A0000057696E6E6572210047616D65206F763D
:1000B0006572210000000300010001000200010040
:1000C0000300020000000000000001000300020025
:1000D0000100020003000100020000000A000A0003
:1000E000F401050607080A020304040009000000E1
:1000F00007000201000003040600000000000000E9
:1001000000010204081020408001020408102001B0
:10011000020408102004040404040404040202027B
:10012000020202030303030303000000002300266E
:1001300000290000000000250028002B000000001E
:1001400000240027002A00021B0911241FBECFEF44
:10015000D8E0DEBFCDBF11E0A0E0B1E0E2E2F5E122
:1001600002C005900D92AA33B107D9F722E0AAE3A5
:10017000B1E001C01D92AA30B207E1F711E0CAE474
:10018000D1E004C02297FE010E947C0AC834D10746
:10019000C9F70E9475070C94CE090C940000CF9209
:1001A000DF92EF92FF920F931F93CF93DF93109202
:1001B0004001C2EED0E08AEEE82E80E0F82ECC249A
:1001C000C394D12C8E01025E1040F701849190E01F
:1001D00008171907B4F4FE0184910E943904892B91
:1001E00071F4C60102C0880F991F0A95E2F78C01CD
:1001F0008095909140018923802B80934001219626
:10020000E1CFDF91CF911F910F91FF90EF90DF90A1
:10021000CF900895AF92BF92DF92EF92FF920F932B
:100220001F93CF93DF9300D000D0CDB7DEB77C0112
:100230008A519F4F5C01FC01849161E00E9403049C
:1002400000EE10E0F8012491ECEEF0E0D49030E004
:1002500040E050E0D701AA0FBB1FAA0FBB1FA65E4C
:10026000BE4F6D917D918D919C9129833A834B83F3
:100270005C830E94D10929813A814B815C818D2D5B
:100280000E946204F801649170E080E090E00E94B6
:100290002303F501849160E00F900F900F900F9071
:1002A000DF91CF911F910F91FF90EF90DF90BF9062
:1002B000AF900C940304CF93DF93C0E0D0E0809123
:1002C0004001992787FD90950C2E02C09595879542
:1002D0000A94E2F780FF03C0CE010E940A01219632
:1002E000C430D10561F7DF91CF910895EF92FF926D
:1002F0000F931F93CF93DF9369EA70E080E691E05C
:100300000E94630708EC10E0C0E0D0E07CEDE72E2F
:1003100070E0F72EF701849190E0C817D9074CF4EC
:10032000F801849190E00E940A0121960E5F1F4F10
:10033000F1CFDF91CF911F910F91FF90EF90089532
:10034000EF92FF920F931F93CF93DF9361EA70E0D8
:1003500080E691E00E94630704EB10E0C0E0D0E08B
:10036000EEEDEE2EE0E0FE2EF701849190E0C8174E
:10037000D9074CF4F801849190E00E940A0121967B
:100380000E5F1F4FF1CFDF91CF911F910F91FF9023
:10039000EF900895EF92FF920F931F93CF93DF9307
:1003A00068EE73E080E090E00E94230340E855E2AD
:1003B00060E070E080E691E00E949A086BE970E0EE
:1003C00080E691E00E94630782E0809341011092F1
:1003D0003B0110923A0110923D0110923C011092A3
:1003E0003F0110923E0160E08EE00E94CA038EE061
:1003F0000E9484030E948207ECEEF0E0849161E0A9
:100400000E94CA03E0E0F0E0849160E00E94CA0329
:10041000C0E0D0E0FAEEEF2EF0E0FF2EF70184917D
:1004200090E0C817D907B4F4FE01EE51FF4F849154
:1004300060E00E94CA038E010A511F4FF8018491A7
:1004400061E00E94CA03F801849160E00E94030405
:100450002196E4CFDF91CF911F910F91FF90EF9004
:1004600008951F93CF93DF93C1E0D0E0D0933F0175
:10047000C0933E0110914101123009F073C063E94D
:1004800070E080E691E00E94630780913C019091CA
:100490003D019C012F5F3F4F30933D0120933C0174
:1004A000883E934049F46BE870E080E691E00E945A
:1004B000630763E870E02EC061E070E080E090E0E8
:1004C0000E9423030E94CF0080914001882309F4F9
:1004D00049C00E945B0180913A0190913B012091BB
:1004E0004001332727FD3095FC01EE0FFF1FEC5F25
:1004F000FE4F008002C0CC0FDD1F0A94E2F72C17DC
:100500003D0779F068E770E080E691E00E946307BC
:1005100060E770E080E691E00E9463070E94760148
:100520001FC0019690933B0180933A0120913E01B8
:1005300030913F0182179307A9F40A9749F06AEFB7
:1005400070E080E090E00E942303109341010AC014
:1005500068E670E080E691E00E9463070E94A001D7
:1005600010924101DF91CF911F9108951F920F9238
:100570000FB60F9211242F933F938F939F93AF93B6
:10058000BF938091430190914401A0914501B091A6
:1005900046013091420123E0230F2D3720F40196CC
:1005A000A11DB11D05C026E8230F0296A11DB11D96
:1005B000209342018093430190934401A09345010D
:1005C000B09346018091470190914801A091490163
:1005D000B0914A010196A11DB11D809347019093EE
:1005E0004801A0934901B0934A01BF91AF919F91F7
:1005F0008F913F912F910F900FBE0F901F901895E4
:100600003FB7F8948091470190914801A09149012A
:10061000B0914A0126B5A89B05C02F3F19F001965D
:10062000A11DB11D3FBF6627782F892F9A2F620F1A
:10063000711D811D911D42E0660F771F881F991F54
:100640004A95D1F70895CF92DF92EF92FF92CF9320
:10065000DF936B017C010E940003EB01C114D10404
:10066000E104F10479F00E9400036C1B7D0B683EED
:100670007340A0F381E0C81AD108E108F108C8511D
:10068000DC4FECCFDF91CF91FF90EF90DF90CF90D8
:100690000895789484B5826084BD84B5816084BDFA
:1006A00085B5826085BD85B5816085BDEEE6F0E0EB
:1006B000808181608083E1E8F0E010828081826047
:1006C0008083808181608083E0E8F0E080818160C8
:1006D0008083E1EBF0E0808184608083E0EBF0E0F8
:1006E000808181608083EAE7F0E08081846080839C
:1006F0008081826080838081816080838081806846
:1007000080831092C10008958E3008F08E5087705B
:100710002091180190E4299F90011124822B80934D
:100720007C0080917A00806480937A0080917A00C6
:1007300086FDFCCF809178002091790090E0922B8B
:100740000895833081F028F4813099F08230A1F04F
:1007500008958630A9F08730B9F08430D1F48091C3
:1007600080008F7D03C0809180008F778093800010
:10077000089584B58F7702C084B58F7D84BD0895B8
:100780008091B0008F7703C08091B0008F7D8093FF
:10079000B0000895CF93DF9390E0FC01EF5FFE4F30
:1007A0002491FC01EB5EFE4F8491882349F190E097
:1007B000880F991FFC01E35CFE4FA591B4918D5CFD
:1007C0009E4FFC01C591D4919FB7611108C0F89468
:1007D0008C91209582238C93888182230AC0623079
:1007E00051F4F8948C91322F309583238C93888127
:1007F000822B888304C0F8948C91822B8C939FBFAA
:10080000DF91CF9108950F931F93CF93DF931F92A2
:10081000CDB7DEB7282F30E0F901E351FF4F8491C7
:10082000F901EF5FFE4F1491F901EB5EFE4F049169
:100830000023C9F0882321F069830E94A103698104
:10084000E02FF0E0EE0FFF1FED5CFE4FA591B4919D
:100850009FB7F8948C91611103C01095812301C05A
:10086000812B8C939FBF0F90DF91CF911F910F91A0
:100870000895CF93DF93282F30E0F901E351FF4F24
:100880008491F901EF5FFE4FD491F901EB5EFE4FC9
:10089000C491CC2391F081110E94A103EC2FF0E0D0
:1008A000EE0FFF1FE75DFE4FA591B4912C912D2314
:1008B00081E090E021F480E002C080E090E0DF91F0
:1008C000CF9108953F924F925F926F927F928F9255
:1008D0009F92AF92BF92CF92DF92EF92FF920F93CF
:1008E0001F93CF93DF9300D000D0CDB7DEB78B013D
:1008F00029013A0190911901981721F09F3F09F0C1
:10090000D3C104C0E7E4F1E0349081C080931901C1
:10091000E7E4F1E0E491EF3F09F4C6C1E13031F1E1
:10092000E23009F44BC0E11171C014BC15BC94B5A0
:10093000926094BD95B5916095BD282F30E0F90186
:10094000EB5EFE4FE491F0E0EE0FFF1FED5CFE4F1B
:100950004591549150935B0140935A01F901EF5F27
:10096000FE4F249120935901312C53C010928000E6
:1009700010928100909181009860909381009091F5
:100980008100916090938100282F30E0F901EB5EA7
:10099000FE4FE491F0E0EE0FFF1FED5CFE4F45913E
:1009A00054915093540140935301F901EF5FFE4F6E
:1009B000249120935201332433942BC01092B00021
:1009C0001092B1009091B00092609093B00090911D
:1009D000B10091609093B100282F30E0F901EB5EF7
:1009E000FE4FE491F0E0EE0FFF1FED5CFE4F4591EE
:1009F000549150934D0140934C01F901EF5FFE4F2C
:100A0000249120934B0152E0352E03C03E2E37FC3B
:100A10004BC161E00E94CA034801A12CB12C832D77
:100A20008D7F09F0C0C060E072E18AE790E0A50127
:100A300094010E94480A29833A834B835C836901AD
:100A40007A0181E0C81AD108E108F1089FEFC916C0
:100A5000D104E104F10409F008F49AC060E472E4FE
:100A60008FE090E0A50194010E94480A69017A0193
:100A7000E1E0CE1AD108E108F108F2E03F1219C016
:100A80008FEFC816D104E104F10409F008F487C01F
:100A900060E970ED83E090E0A50194010E94480AAE
:100AA00069017A0191E0C91AD108E108F10883E0EF
:100AB00001C082E0EFEFCE16D104E104F10409F0A9
:100AC00008F467C068E478EE81E090E0A501940145
:100AD0000E94480A69017A01F1E0CF1AD108E108C1
:100AE000F1083320E1F082E038121BC09FEFC916F5
:100AF000D104E104F10409F008F4D4C064E274EF15
:100B000080E090E0A50194010E94480A69017A0101
:100B1000E1E0CE1AD108E108F10885E003C083E0E6
:100B200001C084E0FFEFCF16D104E104F10489F1A4
:100B300080F162E17AE780E090E0A50194010E94F3
:100B4000480A69017A0181E0C81AD108E108F10870
:100B5000311002C084E001C086E09FEFC916D104C5
:100B6000E104F104B1F0A8F0C980DA80EB80FC80E8
:100B70009AE0F594E794D794C7949A95D1F7E1E079
:100B8000CE1AD108E108F108332031F087E008C01F
:100B900081E0332011F004C085E085BD34C082E0DF
:100BA0008093B10030C060E072E18AE790E0A50177
:100BB00094010E94480A69017A01F1E0CF1AD10834
:100BC000E108F108C114D10481E0E806F10488F0DD
:100BD00068E478EE81E090E0A50194010E94480A63
:100BE00069017A0191E0C91AD108E108F10893E09E
:100BF00001C091E0E1E03E1206C080918100887F53
:100C0000892B80938100411451046104710471F0B7
:100C1000D801AA0FBB1FA30192010E94670A28EE08
:100C200033E040E050E00E94260A03C02FEF3FEF80
:100C3000A901F1E03F16A1F082E0381619F1311058
:100C400033C0C7BC20935C0130935D0140935E01CB
:100C500050935F0180916E00826080936E0024C08B
:100C6000D0928900C092880020935501309356019C
:100C7000409357015093580180916F008260809398
:100C80006F0012C0C092B30020934E0130934F0109
:100C90004093500150935101809170008260809385
:100CA000700002C084E07CCF0F900F900F900F90E7
:100CB000DF91CF911F910F91FF90EF90DF90CF9038
:100CC000BF90AF909F908F907F906F905F904F906C
:100CD0003F900895813039F018F0823051F0089536
:100CE00010926E00089580916F008D7F80936F0049
:100CF0000895809170008D7F8093700081E08093D3
:100D0000B0008091B100887F84608093B100109220
:100D1000B3000895CF93C82F809119018C1307C099
:100D2000E7E4F1E084919FEF9093190101C08FEF08
:100D30000E946A0660E08C2FCF910C9403041F92EE
:100D40000F920FB60F9211242F933F934F935F93FF
:100D50006F937F938F939F93AF93BF93EF93FF9383
:100D600080914E0190914F01A0915001B09151019D
:100D7000892B8A2B8B2B51F190914B01E0914C01E7
:100D8000F0914D0180818927808380914E0190915F
:100D90004F01A0915001B0915101181619061A0681
:100DA0001B06C4F480914E0190914F01A091500117
:100DB000B09151010197A109B10980934E0190931F
:100DC0004F01A0935001B093510104C080911901CB
:100DD0000E948A06FF91EF91BF91AF919F918F91F1
:100DE0007F916F915F914F913F912F910F900FBE27
:100DF0000F901F901895CF92DF92EF92FF920F9372
:100E00001F93CF93DF936C017A01EB01E60EF71E7F
:100E100000E010E0CE15DF0561F06991D601ED919B
:100E2000FC910190F081E02DC6010995080F191F72
:100E3000F1CFC801DF91CF911F910F91FF90EF90FB
:100E4000DF90CF900895EF92FF920F931F93CF936F
:100E5000DF938C01FB01C0E0D0E064917F018FEF54
:100E6000E81AF80A662361F0D801ED91FC9101902F
:100E7000F081E02DC8010995C80FD91FF701EDCF0A
:100E8000CE01DF91CF911F910F91FF90EF900895C8
:100E9000DC01ED91FC910190F081E02D09940F931C
:100EA0001F93CF93DF93EC016DE00E9448078C0104
:100EB0006AE0CE010E944807800F911FDF91CF9119
:100EC0001F910F9108950F931F93CF93DF93EC0120
:100ED0000E9423078C01CE010E944F07800F911FB3
:100EE000DF91CF911F910F9108950E9449030E94B5
:100EF000CA01C6E5D8E00E9431022097E1F30E94C2
:100F00005608F9CF009729F0BC0180E090E00C94DE
:100F1000C5090895FC0124853585F901E05CFF4F82
:100F200080819181329620813181821B930B8F7356
:100F300099270895FC0184859585FC01E05CFF4FAD
:100F4000408151813296208131814217530741F00F
:100F50000190F081E02DE80FF91F808190E0089565
:100F60008FEF9FEF0895FC0184859585FC01E05C7F
:100F7000FF4F4081518132962081318142175307C2
:100F800079F0A081B181A80FB91F8C9120813181A6
:100F90002F5F3F4F2F7333273183208390E00895D5
:100FA0008FEF9FEF0895FC0181A1882329F0A48988
:100FB000B5898C9186FFFBCF11A20895CF93DF9363
:100FC000FC0126853785D901A05CBF4F8D919C918E
:100FD000119701968F739927E901CE5BDF4F488106
:100FE000598184179507D9F30D90BC91A02DA20FBC
:100FF000B31F6C93A685B785A05CBF4F11969C93D9
:101000008E93A689B7892C9181E090E0078C02C06D
:10101000880F991F0A94E2F7282B2C9381E081A373
:101020000488F589E02D80818064808381E090E0F0
:10103000DF91CF91089508951F920F920FB60F92EE
:1010400011242F933F934F938F939F93EF93FF938D
:101050008091C00082FD1CC04091C60080910602B4
:101060009091070201968F73992720910802309181
:1010700009028217930771F0E0910602F0910702CE
:10108000EA53FE4F4083909307028093060202C00A
:101090008091C600FF91EF919F918F914F913F9169
:1010A0002F910F900FBE0F901F90189580E691E042
:1010B0000E948A07892B11F00C941B0808951F9237
:1010C0000F920FB60F9211242F933F938F939F93FC
:1010D000EF93FF932091C2013091C3018091C4012D
:1010E0009091C5012817390731F48091C1008F7D97
:1010F0008093C10014C0E091C401F091C501EE5786
:10110000FE4F20818091C4019091C50101968F739B
:1011100099279093C5018093C4012093C600FF9145
:10112000EF919F918F913F912F910F900FBE0F9054
:101130001F901895CF92DF92EF92FF92CF93DF939B
:10114000EC016A017B01411581EE580761057105CB
:10115000F9F0EC89FD8981E090E008A002C0880FD9
:10116000991F0A94E2F7808360E079E08DE390E0D4
:10117000A70196010E94260A21503109410951090F
:101180005695479537952795211580E1380798F0B2
:10119000EC89FD89108260E874E88EE190E0A70197
:1011A00096010E94260A215031094109510956959C
:1011B000479537952795E889F9893083EA89FB892E
:1011C000208319A2EE89FF89408181E090E09C0193
:1011D0000C8C02C0220F331F0A94E2F7422B40838B
:1011E000EE89FF8940819C010D8C02C0220F331FC4
:1011F0000A94E2F7422B4083EE89FF8940819C01EB
:101200000E8C02C0220F331F0A94E2F7422B408358
:10121000EE89FF8920810F8C02C0880F991F0A94E4
:10122000E2F7809582238083DF91CF91FF90EF904A
:10123000DF90CF900895109263011092620188EEC2
:1012400093E0A0E0B0E08093640190936501A093E7
:101250006601B09367018EE291E090936101809303
:10126000600186EC91E090936D0180936C0182E8BF
:1012700091E090936F0180936E0185EC90E09093E4
:1012800071018093700184EC90E0909373018093DE
:10129000720180EC90E0909375018093740181EC71
:1012A00090E0909377018093760182EC90E09093A8
:1012B00079018093780186EC90E090937B01809394
:1012C0007A0184E080937C0183E080937D0187E054
:1012D00080937E0185E080937F0181E0809380018F
:1012E00008958F929F92AF92BF92CF92DF92EF922A
:1012F000FF92CF93DF93EC01688179818A819B8192
:10130000611571058105910521F464E279ED8BE5A4
:1013100097E02DE133EF41E050E00E94480A490197
:101320005A019B01AC01A7EAB1E40E94670A6B0174
:101330007C01ACEEB4EFA50194010E94750AC60EC3
:10134000D71EE81EF91EF7FE06C081E0C81AD108B4
:10135000E10880E8F80AC882D982EA82FB82C701E4
:10136000B6019F77DF91CF91FF90EF90DF90CF9004
:10137000BF90AF909F908F9008950E94710908953B
:1013800080E091E00E9471090895609300017093DC
:10139000010180930201909303010895F8940C9445
:1013A0008F0A33D088F09F5790F0B92F9927B75103
:1013B000A0F0D1F0660F771F881F991F1AF0BA9519
:1013C000C9F712C0B13081F03AD0B1E0089537C00A
:1013D000672F782F8827B85F39F0B93FCCF386950F
:1013E00077956795B395D9F73EF49095809570956C
:1013F00061957F4F8F4F9F4F089557FD9058440F31
:10140000551F59F05F3F71F04795880F97FB991F63
:1014100061F09F3F79F08795089512161306140620
:10142000551FF2CF4695F1DF08C0161617061806AD
:10143000991FF1CF86957105610508940895E89488
:10144000BB2766277727CB0197F90895A1E21A2ECB
:10145000AA1BBB1BFD010DC0AA1FBB1FEE1FFF1F58
:10146000A217B307E407F50720F0A21BB30BE40BA8
:10147000F50B661F771F881F991F1A9469F76095EF
:101480007095809590959B01AC01BD01CF010895A9
:10149000052E97FB1EF400940E945F0A57FD07D0AB
:1014A0000E94260A07FC03D04EF40C945F0A509564
:1014B0004095309521953F4F4F4F5F4F0895909540
:1014C0008095709561957F4F8F4F9F4F08950E9433
:1014D000800AA59F900DB49F900DA49F800D911D33
:1014E00011240895B7FF0C94670A0E94670A821BB3
:1014F000930B0895EE0FFF1F0590F491E02D0994D2
:10150000A29FB001B39FC001A39F700D811D112444
:10151000911DB29F700D811D1124911D0895F894A5
:02152000FFCFFB
:1015220001000000000001000200010002000000B2
:10153200030002000000010001FFA4D08243A4D0F6
:10154200A4430000C44300D0024400000000DE07B0
:0A155200FB068A07B3079A07D307C8
:00000001FF
