:100000000C945D000C9485000C9485000C94850084
:100010000C9485000C9485000C9485000C9485004C
:100020000C9485000C9485000C9485000C94A80118
:100030000C9485000C9485000C9485000C9485002C
:100040000C94CD000C9485000C9485000C948500D4
:100050000C9485000C9485000C9485000C9485000C
:100060000C9485000C94850000000007000201003C
:100070000003040600000000000000000102040864
:100080001020408001020408102001020408102002
:10009000040404040404040402020202020203032E
:1000A0000303030300000000250028002B000000CC
:1000B0000000240027002A00C90011241FBECFEF32
:1000C000D8E0DEBFCDBF11E0A0E0B1E0EAEFF9E09B
:1000D00002C005900D92A430B107D9F721E0A4E049
:1000E000B1E001C01D92A833B207E1F710E0CAEBFE
:1000F000D0E004C02297FE010E94E804C83BD1076B
:10010000C9F70E949B010C947B040C94000069E0E9
:1001100070E086E091E00C94FE02109205011092CE
:1001200004016091040170910501653B7105A4F41F
:1001300086E091E00E9437036FE070E080E090E09D
:100140000E943A01809104019091050101969093DB
:10015000050180930401E5CF84EB90E090930501C5
:1001600080930401609104017091050177FD10C036
:1001700086E091E00E9437036FE070E080E090E05D
:100180000E943A0180910401909105010197E6CF08
:10019000089586E091E00C9464021F920F920FB6CE
:1001A0000F9211242F933F938F939F93AF93BF93FD
:1001B00080910A0190910B01A0910C01B0910D0169
:1001C0003091090123E0230F2D3720F40196A11D62
:1001D000B11D05C026E8230F0296A11DB11D209375
:1001E000090180930A0190930B01A0930C01B09335
:1001F0000D0180910E0190910F01A0911001B0911D
:1002000011010196A11DB11D80930E0190930F0164
:10021000A0931001B0931101BF91AF919F918F9165
:100220003F912F910F900FBE0F901F9018953FB7E1
:10023000F89480910E0190910F01A0911001B0915E
:10024000110126B5A89B05C02F3F19F00196A11DED
:10025000B11D3FBF6627782F892F9A2F620F711D1E
:10026000811D911D42E0660F771F881F991F4A95D7
:10027000D1F70895CF92DF92EF92FF92CF93DF9361
:100280006B017C010E941701EB01C114D104E10450
:10029000F10479F00E9417016C1B7D0B683E7340DE
:1002A000A0F381E0C81AD108E108F108C851DC4F79
:1002B000ECCFDF91CF91FF90EF90DF90CF9008953A
:1002C000789484B5826084BD84B5816084BD85B531
:1002D000826085BD85B5816085BDEEE6F0E08081F8
:1002E00081608083E1E8F0E0108280818260808319
:1002F000808181608083E0E8F0E08081816080839C
:10030000E1EBF0E0808184608083E0EBF0E08081CD
:1003100081608083EAE7F0E080818460808380816F
:100320008260808380818160808380818068808317
:100330001092C10008950E9460010E948700C0E0F1
:10034000D0E00E948D002097E1F30E940000F9CFD9
:100350001F920F920FB60F9211242F933F934F933A
:100360005F936F937F938F939F93AF93BF93EF931D
:10037000FF938091130187FF05C0109285001092B2
:1003800084001AC020911301332727FD30958091F6
:10039000120190E0281739077CF480911301992706
:1003A00087FD9095FC01EE0FFF1FE80FF91FEC5E33
:1003B000FE4F808186FD15C0809113018F5F809371
:1003C000130120911301332727FD309580911201ED
:1003D00090E028173907BCF4809113018C305CF150
:1003E00012C080911301992787FD9095FC01EE0FB3
:1003F000FF1FE80FF91FEC5EFE4F808160E08F73F6
:100400000E94FE03D9CF80918400909185000496CC
:1004100080349C4918F480E49CE905C080918400F4
:1004200090918500049690938900809388008FEFC7
:100430008093130138C080918400909185002091B1
:100440001301332727FD3095F901EE0FFF1FE20F4F
:10045000F31FEC5EFE4F21813281820F931F909338
:1004600089008093880080911301992787FD9095DA
:10047000FC01EE0FFF1FE80FF91FEC5EFE4F8081BD
:1004800086FF11C080911301992787FD9095FC018B
:10049000EE0FFF1FE80FF91FEC5EFE4F808161E059
:1004A0008F730E94FE03FF91EF91BF91AF919F91D7
:1004B0008F917F916F915F914F913F912F910F900D
:1004C0000FBE0F901F901895209112012C30A0F4B0
:1004D00031E0320F30931201FC012083822F90E033
:1004E000FC01EE0FFF1FE80FF91FEC5EFE4F88EBDB
:1004F0009BE09283818308952FEFFC012083089570
:10050000DF92EF92FF920F931F93CF93DF93EC0153
:10051000D62E7A01890188818C3008F066C061E0AE
:100520008D2D0E94C5038881A82FB0E0FD01EE0F3C
:10053000FF1FEA0FFB1FEC5EFE4F2D2D2F739081E6
:10054000907C922B908360E272E06E197F0977FFB6
:1005500002C06D5F7F4F7595679575956795698347
:1005600040E659E0401B510B57FF02C04D5F5F4F03
:1005700055954795559547954A836CE00E948E04A2
:100580009CE0899FB001112420E030E0A901460FD2
:10059000571FFA01EE0FFF1FE40FF51FEC5EFE4F31
:1005A000908196FD16C02F5F3F4F2C30310571F7BB
:1005B00081110FC01092800082E080938100109220
:1005C000850010928400B19A80916F0082608093C0
:1005D0006F00888190E0FC01EE0FFF1FE80FF91F0C
:1005E000EC5EFE4F8081806480838881DF91CF91B3
:1005F0001F910F91FF90EF90DF90089520E639E072
:1006000040E252E00C948002FC0180818C3070F555
:10061000918128E830E0291B310997FD3395220F9D
:10062000331F220F331F621773077CF0928128E576
:1006300032E0291B310997FD3395220F331F220F1A
:10064000331F621773070CF49B014FB7F89490E0C7
:10065000FC01EE0FFF1FE80FF91FEC5EFE4F22506A
:100660003109220F331F328321834FBF08954F92E8
:100670005F926F927F92AF92BF92CF92DF92EF9292
:10068000FF920F931F93CF93DF93EC01603282E0D0
:1006900078070CF040C077FD06C0653B71052CF073
:1006A00064EB70E002C060E070E0898128E830E02F
:1006B000281B310987FD3395220F331F220F331F6B
:1006C0005901CC24B7FCC094DC2C882777FD809599
:1006D000982F2A8148E552E0421B510927FD539586
:1006E000440F551F440F551F2A01662457FC609480
:1006F000762C7F926F925F924F9214EBE12EF12C49
:1007000000E010E020E030E0A9010E9434040F90E6
:100710000F900F900F90CE01DF91CF911F910F910D
:10072000FF90EF90DF90CF90BF90AF907F906F9051
:100730005F904F900C940403833081F028F4813053
:1007400099F08230A1F008958630A9F08730B9F091
:100750008430D1F4809180008F7D03C0809180002F
:100760008F7780938000089584B58F7702C084B519
:100770008F7D84BD08958091B0008F7703C08091F4
:10078000B0008F7D8093B0000895CF93DF9390E009
:10079000FC01E458FF4F2491FC01E057FF4F849186
:1007A000882349F190E0880F991FFC01E255FF4F23
:1007B000A591B4918C559F4FFC01C591D4919FB7E1
:1007C000611108C0F8948C91209582238C938881C4
:1007D00082230AC0623051F4F8948C91322F309504
:1007E00083238C938881822B888304C0F8948C9116
:1007F000822B8C939FBFDF91CF9108950F931F930E
:10080000CF93DF931F92CDB7DEB7282F30E0F901E9
:10081000E859FF4F8491F901E458FF4F1491F90111
:10082000E057FF4F04910023C9F0882321F069832A
:100830000E949C036981E02FF0E0EE0FFF1FEC5552
:10084000FF4FA591B4919FB7F8948C91611103C0AB
:100850001095812301C0812B8C939FBF0F90DF9156
:10086000CF911F910F9108954F925F926F927F9257
:10087000AF92BF92CF92DF92EF92FF920F931F93AE
:10088000CF93DF93CDB7DEB729013A01621B730B1B
:10089000840B950B29893A894B895C892A193B0974
:1008A0004C095D09298B3A8B4B8B5C8B9B01AC010E
:1008B00069897A898B899C890E947E04E418F508ED
:1008C00006091709A80197010E949A042A0D3B1DE9
:1008D0004C1D5D1DCA01B901DF91CF911F910F9190
:1008E000FF90EF90DF90CF90BF90AF907F906F9090
:1008F0005F904F900895F8940C94FB04DB018F9364
:100900009F930E94B904BF91AF91A29F800D911D4A
:10091000A39F900DB29F900D11240895991B79E02B
:1009200004C0991F961708F0961B881F7A95C9F77F
:1009300080950895052E97FB1EF400940E94B10443
:1009400057FD07D00E94C40407FC03D04EF40C945A
:10095000B10450954095309521953F4F4F4F5F4FD3
:10096000089590958095709561957F4F8F4F9F4F1B
:1009700008950E94EC04A59F900DB49F900DA49F34
:10098000800D911D11240895A1E21A2EAA1BBB1BF4
:10099000FD010DC0AA1FBB1FEE1FFF1FA217B3074B
:1009A000E407F50720F0A21BB30BE40BF50B661F61
:1009B000771F881F991F1A9469F760957095809525
:1009C00090959B01AC01BD01CF010895EE0FFF1F73
:1009D0000590F491E02D0994A29FB001B39FC0014E
:1009E000A39F700D811D1124911DB29F700D811D5B
:0A09F0001124911D0895F894FFCF23
:0409FA0001000000F8
:00000001FF
