:100000000C94B3000C94DB000C94DB000C94DB002C
:100010000C94DB000C94DB000C94DB000C941A07AE
:100020000C94DB000C94DB000C94DB000C94DB00E4
:100030000C94DB000C94DB000C94DB000C94DB00D4
:100040000C9431030C94DB000C94A8090C94EB097C
:100050000C94DB000C94DB000C94DB000C94DB00B4
:100060000C94DB000C94DB0053544F50504544007B
:1000700053544F505045440042616420416E7377A1
:1000800065720053544F505045440054696D656F7C
:10009000757400504C4159494E4700504C415942EB
:1000A00041434B0052455345540053544F50504523
:1000B00044005245534554005365747570005769A8
:1000C0006E6E6572210047616D65206F76657221E5
:1000D0000000000300010001000200010003000213
:1000E0000000000000000001000300020001000207
:1000F0000003000100020000000A000A00F40105EC
:100100000607080A020304090000000700020100B4
:1001100000030406000000000000000001020408C3
:100120001020408001020408102001020408102061
:10013000040404040404040402020202020203038D
:100140000303030300000000230026002900000031
:100150000000250028002B000000000024002700DC
:100160002A000200A70A11241FBECFEFD8E0DEBF8D
:10017000CDBF11E0A0E0B1E0EAE3F8E102C00590F4
:100180000D92A632B107D9F722E0A6E2B1E001C094
:100190001D92A030B207E1F711E0C6E6D1E004C03D
:1001A0002297FE010E94080CC436D107C9F70E94AD
:1001B000C1080C945A0B0C9400000F931F93CF931B
:1001C000DF9310923601C0E0D0E001E010E0FE01C4
:1001D000E150FF4F84910E94B404892B71F4C8014F
:1001E0000C2E01C0880F0A94EAF7982F9095209161
:1001F00036019223982B909336012196C430D10575
:1002000031F7DF91CF911F910F910895AF92BF9277
:10021000DF92EF92FF920F931F93CF93DF9300D063
:1002200000D0CDB7DEB77C018D5F9E4F5C01FC0135
:10023000849161E00E947E040DEF10E0F8012491AA
:10024000E7E0F1E0D49030E040E050E0D701AA0FC1
:10025000BB1FAA0FBB1FAA5FBE4F6D917D918D91F1
:100260009C9129833A834B835C830E945D0B298197
:100270003A814B815C818D2D0E94DD04F8016491EF
:1002800070E080E090E00E949E03F501849160E0C0
:100290000F900F900F900F90DF91CF911F910F91C2
:1002A000FF90EF90DF90BF90AF900C947E04CF93BF
:1002B000DF93C0E0D0E080913601992787FD9095CB
:1002C0000C2E02C0959587950A94E2F780FF03C033
:1002D000CE010E9406012196C430D10561F7DF915D
:1002E000CF910895EF92FF920F931F93CF93DF93D7
:1002F00066EC70E086E591E00E94F40705EE10E000
:10030000C0E0D0E099EFE92E90E0F92EF70184915A
:1003100090E0C817D9074CF4F801849190E00E944E
:10032000060121960E5F1F4FF1CFDF91CF911F91F4
:100330000F91FF90EF900895EF92FF920F931F930C
:10034000CF93DF936EEB70E086E591E00E94F407B7
:1003500001ED10E0C0E0D0E02BEFE22E20E0F22E25
:10036000F701849190E0C817D9074CF4F801849103
:1003700090E00E94060121960E5F1F4FF1CFDF91A2
:10038000CF911F910F91FF90EF9008950F931F93BE
:10039000CF93DF9368EE73E080E090E00E949E03CD
:1003A00040E855E260E070E086E591E00E94260AB0
:1003B00068EB70E086E591E00E94F4071092370147
:1003C00060E08EE00E9445048EE00E94FF030E94E0
:1003D000CE08E7E0F1E0849161E00E944504E0E0AE
:1003E000F0E0849160E00E944504C0E0D0E0FE01AE
:1003F000E150FF4F849160E00E9445048E010D5F43
:100400001E4FF801849161E00E944504F801849137
:1004100060E00E947E042196C430D10541F7DF914F
:10042000CF911F910F910895CF93DF938091370162
:10043000813081F464EF71E080E090E00E949E03DF
:1004400083E08093370110923101109230011092B5
:10045000360104C181110EC080E00E94B404892BD2
:10046000D9F764EF71E080E090E00E949E0362EBB8
:1004700070E013C080E00E94B404892B39F46AEA6A
:1004800070E086E591E00E94F407E6C080E00E94FB
:10049000B404892BD1F464EA70E086E591E00E940F
:1004A000F40781E00FC064E670E080E090E00E9415
:1004B0009E03109235011092340110923301109274
:1004C000320182E080933701C9C0809137018330C7
:1004D000C9F56BE970E086E591E00E94F407C091F0
:1004E0003001D0913101CA30D10594F4CE0101968A
:1004F000909331018093300124E030E040E050E0FF
:1005000060E070E0CB010E94FA08CA5DDE4F6883AC
:10051000C6E2D1E080913001909131019E012652D6
:100520003140281739070CF0BECF8991992787FDF4
:1005300090950E9406016CE271E080E090E00E94DC
:100540009E03E8CF823009F089C063E970E086E558
:1005500091E00E94F40760913201709133014AE00A
:1005600050E086E591E00E94A9084AE050E064E688
:1005700070E086E591E00E94A90880913201909197
:1005800033019C012F5F3F4F3093330120933201A1
:100590008436910549F46BE870E086E591E00E94AD
:1005A000F40763E870E02EC061E070E080E090E066
:1005B0000E949E030E94DD0080913601882309F489
:1005C0004DC00E94570180913401909135014091B6
:1005D0003601552747FD5095FC01EA5DFE4F21E0AD
:1005E00030E0008002C0220F331F0A94E2F7421766
:1005F000530779F068E770E086E591E00E94F40720
:1006000060E770E086E591E00E94F4070E947201C5
:1006100023C00196909335018093340120913001DD
:10062000309131018217930751F40A9769F064EF12
:1006300071E080E090E00E949E0383E043CF10923F
:100640003301109232010AC068E670E086E591E05D
:100650000E94F4070E949C0110923701DF91CF9114
:1006600008951F920F920FB60F9211242F933F936C
:100670008F939F93AF93BF938091390190913A01EB
:10068000A0913B01B0913C013091380123E0230F50
:100690002D3720F40196A11DB11D05C026E8230FBA
:1006A0000296A11DB11D20933801809339019093CA
:1006B0003A01A0933B01B0933C0180913D019091A0
:1006C0003E01A0913F01B09140010196A11DB11DD5
:1006D00080933D0190933E01A0933F01B093400170
:1006E000BF91AF919F918F913F912F910F900FBE2E
:1006F0000F901F9018953FB7F89480913D0190910D
:100700003E01A0913F01B091400126B5A89B05C0D4
:100710002F3F19F00196A11DB11D3FBF6627782F0D
:10072000892F9A2F620F711D811D911D42E0660F66
:10073000771F881F991F4A95D1F70895CF92DF92AE
:10074000EF92FF92CF93DF936B017C010E947B03BA
:10075000EB01C114D104E104F10479F00E947B03A0
:100760006C1B7D0B683E7340A0F381E0C81AD10872
:10077000E108F108C851DC4FECCFDF91CF91FF9039
:10078000EF90DF90CF900895789484B5826084BD17
:1007900084B5816084BD85B5826085BD85B5816085
:1007A00085BDEEE6F0E0808181608083E1E8F0E0E5
:1007B0001082808182608083808181608083E0E814
:1007C000F0E0808181608083E1EBF0E080818460F3
:1007D0008083E0EBF0E0808181608083EAE7F0E0F5
:1007E0008081846080838081826080838081816059
:1007F00080838081806880831092C10008958E304C
:1008000008F08E5087702091040190E4299F900198
:100810001124822B80937C0080917A0080648093E5
:100820007A0080917A0086FDFCCF8091780020913B
:10083000790090E0922B0895833081F028F4813084
:1008400099F08230A1F008958630A9F08730B9F090
:100850008430D1F4809180008F7D03C0809180002E
:100860008F7780938000089584B58F7702C084B518
:100870008F7D84BD08958091B0008F7703C08091F3
:10088000B0008F7D8093B0000895CF93DF9390E008
:10089000FC01E45EFE4F2491FC01E05DFE4F84917B
:1008A000882349F190E0880F991FFC01E85AFE4F18
:1008B000A591B491825B9E4FFC01C591D4919FB7E5
:1008C000611108C0F8948C91209582238C938881C3
:1008D00082230AC0623051F4F8948C91322F309503
:1008E00083238C938881822B888304C0F8948C9115
:1008F000822B8C939FBFDF91CF9108950F931F930D
:10090000CF93DF931F92CDB7DEB7282F30E0F901E8
:10091000E85FFE4F8491F901E45EFE4F1491F90106
:10092000E05DFE4F04910023C9F0882321F0698324
:100930000E941C046981E02FF0E0EE0FFF1FE25BD4
:10094000FE4FA591B4919FB7F8948C91611103C0AB
:100950001095812301C0812B8C939FBF0F90DF9155
:10096000CF911F910F910895CF93DF93282F30E0FF
:10097000F901E85FFE4F8491F901E45EFE4FD491E6
:10098000F901E05DFE4FC491CC2391F081110E94EA
:100990001C04EC2FF0E0EE0FFF1FEC5BFE4FA59167
:1009A000B4912C912D2381E090E021F480E002C0ED
:1009B00080E090E0DF91CF9108953F924F925F9257
:1009C0006F927F928F929F92AF92BF92CF92DF925F
:1009D000EF92FF920F931F93CF93DF9300D000D03D
:1009E000CDB7DEB78B0129013A0190910501981727
:1009F00021F09F3F09F0D3C104C0E2E6F1E034905A
:100A000081C080930501E2E6F1E0E491EF3F09F453
:100A1000C6C1E13031F1E23009F44BC0E11171C0DF
:100A200014BC15BC94B5926094BD95B5916095BD0C
:100A3000282F30E0F901E05DFE4FE491F0E0EE0F89
:100A4000FF1FE25BFE4F459154915093510140933B
:100A50005001F901E45EFE4F249120934F01312CA7
:100A600053C0109280001092810090918100986094
:100A70009093810090918100916090938100282F44
:100A800030E0F901E05DFE4FE491F0E0EE0FFF1F72
:100A9000E25BFE4F4591549150934A0140934901C6
:100AA000F901E45EFE4F24912093480133243394EE
:100AB0002BC01092B0001092B1009091B0009260E3
:100AC0009093B0009091B10091609093B100282F65
:100AD00030E0F901E05DFE4FE491F0E0EE0FFF1F22
:100AE000E25BFE4F45915491509343014093420184
:100AF000F901E45EFE4F24912093410152E0352E2E
:100B000003C03E2E37FC4BC161E00E944504480102
:100B1000A12CB12C832D8D7F09F0C0C060E072E163
:100B20008AE790E0A50194010E94D40B29833A83BF
:100B30004B835C8369017A0181E0C81AD108E1081E
:100B4000F1089FEFC916D104E104F10409F008F49B
:100B50009AC060E472E48FE090E0A50194010E94E5
:100B6000D40B69017A01E1E0CE1AD108E108F1085D
:100B7000F2E03F1219C08FEFC816D104E104F1046E
:100B800009F008F487C060E970ED83E090E0A5010A
:100B900094010E94D40B69017A0191E0C91AD1082D
:100BA000E108F10883E001C082E0EFEFCE16D10446
:100BB000E104F10409F008F467C068E478EE81E02C
:100BC00090E0A50194010E94D40B69017A01F1E043
:100BD000CF1AD108E108F1083320E1F082E03812A1
:100BE0001BC09FEFC916D104E104F10409F008F419
:100BF000D4C064E274EF80E090E0A50194010E940B
:100C0000D40B69017A01E1E0CE1AD108E108F108BC
:100C100085E003C083E001C084E0FFEFCF16D1047C
:100C2000E104F10489F180F162E17AE780E090E08B
:100C3000A50194010E94D40B69017A0181E0C81AD0
:100C4000D108E108F108311002C084E001C086E05B
:100C50009FEFC916D104E104F104B1F0A8F0C980F6
:100C6000DA80EB80FC809AE0F594E794D794C794FF
:100C70009A95D1F7E1E0CE1AD108E108F1083320C6
:100C800031F087E008C081E0332011F004C085E036
:100C900085BD34C082E08093B10030C060E072E175
:100CA0008AE790E0A50194010E94D40B69017A01C2
:100CB000F1E0CF1AD108E108F108C114D10481E0B4
:100CC000E806F10488F068E478EE81E090E0A501A0
:100CD00094010E94D40B69017A0191E0C91AD108EC
:100CE000E108F10893E001C091E0E1E03E1206C0A6
:100CF00080918100887F892B809381004114510469
:100D00006104710471F0D801AA0FBB1FA301920105
:100D10000E94F30B28EE33E040E050E00E94B20B5B
:100D200003C02FEF3FEFA901F1E03F16A1F082E0F1
:100D3000381619F1311033C0C7BC209352013093DB
:100D40005301409354015093550180916E0082608D
:100D500080936E0024C0D0928900C09288002093B6
:100D60004B0130934C0140934D0150934E018091C3
:100D70006F00826080936F0012C0C092B300209316
:100D800044013093450140934601509347018091BF
:100D9000700082608093700002C084E07CCF0F906E
:100DA0000F900F900F90DF91CF911F910F91FF90B7
:100DB000EF90DF90CF90BF90AF909F908F907F90FB
:100DC0006F905F904F903F900895813039F018F008
:100DD000823051F0089510926E00089580916F0056
:100DE0008D7F80936F000895809170008D7F809338
:100DF000700081E08093B0008091B100887F8460B2
:100E00008093B1001092B3000895CF93C82F8091C2
:100E100005018C1307C0E2E6F1E084919FEF909307
:100E2000050101C08FEF0E94E50660E08C2FCF9195
:100E30000C947E041F920F920FB60F9211242F93E1
:100E40003F934F935F936F937F938F939F93AF9352
:100E5000BF93EF93FF938091440190914501A0913E
:100E60004601B0914701892B8A2B8B2B51F1909130
:100E70004101E0914201F091430180818927808303
:100E80008091440190914501A0914601B0914701A4
:100E9000181619061A061B06C4F480914401909195
:100EA0004501A0914601B09147010197A109B109FF
:100EB0008093440190934501A0934601B09347016C
:100EC00004C0809105010E940507FF91EF91BF9139
:100ED000AF919F918F917F916F915F914F913F91D2
:100EE0002F910F900FBE0F901F901895CF92DF9209
:100EF000EF92FF920F931F93CF93DF936C017A01D0
:100F0000EB01E60EF71E00E010E0CE15DF0561F004
:100F10006991D601ED91FC910190F081E02DC6011F
:100F20000995080F191FF1CFC801DF91CF911F91CB
:100F30000F91FF90EF90DF90CF90089561157105AC
:100F400081F0DB010D900020E9F7AD01415051091E
:100F5000461B570BDC01ED91FC910280F381E02DE3
:100F6000099480E090E00895EF92FF920F931F9311
:100F7000CF93DF938C01FB01C0E0D0E064917F014F
:100F80008FEFE81AF80A662361F0D801ED91FC9121
:100F90000190F081E02DC8010995C80FD91FF70114
:100FA000EDCFCE01DF91CF911F910F91FF90EF9088
:100FB0000895DC01ED91FC910190F081E02D099400
:100FC0000F931F93CF93DF93EC016DE00E94D9073D
:100FD0008C016AE0CE010E94D907800F911FDF913A
:100FE000CF911F910F9108950F931F93CF93DF938C
:100FF000EC010E94B4078C01CE010E94E007800F33
:10100000911FDF91CF911F910F9108958F929F9221
:10101000AF92BF92CF92DF92EF92FF920F931F9306
:10102000CF93DF93CDB7DEB7A1970FB6F894DEBFAD
:101030000FBECDBF7C01C42EE52FCB01D22E19A24D
:1010400021E02D1510F02AE0D22E8E010F5D1F4FEA
:101050008D2C912CA12CB12C6C2D7E2FA5019401EF
:101060000E94B20B8C2DD29E8019112401501109BF
:101070008A3014F4805D01C0895CF80180832115F9
:1010800031054105510521F0C22EE32FCA01E4CFFD
:10109000B801C7010E949E07A1960FB6F894DEBF63
:1010A0000FBECDBFDF91CF911F910F91FF90EF90B9
:1010B000DF90CF90BF90AF909F908F900895CF9288
:1010C000DF92EF92FF920F931F93CF93DF93EC0188
:1010D0006A017B012115310579F4E881F9810190DC
:1010E000F081E02D642FDF91CF911F910F91FF9040
:1010F000EF90DF90CF9009942A303105E9F477FF23
:101100001AC06DE20E94D9078C0144275527BA0105
:101110004C195D096E097F092AE0CE010E9406087C
:10112000800F911FDF91CF911F910F91FF90EF9052
:10113000DF90CF9008952AE0B701A601CE01DF919C
:10114000CF911F910F91FF90EF90DF90CF900C9473
:1011500006080F931F93CF93DF93EC019A01AB0125
:10116000662757FD6095762F0E945F088C01CE019F
:101170000E94E007800F911FDF91CF911F910F9187
:1011800008950E94C4030E94C601C2EED9E00E94E5
:1011900014022097E1F30E94E209F9CF009729F0A9
:1011A000BC0180E090E00C94510B0895CF93DF9345
:1011B00000D000D0CDB7DEB79B01AC016115710541
:1011C0008105910569F069833A834B835C830E94B2
:1011D0004C0B29813A814B815C810E94D40B03C066
:1011E00060E070E0CB010F900F900F900F90DF91B7
:1011F000CF910895CF92DF92EF92FF926B017C0125
:10120000621773078407950764F4CA01B9016C1962
:101210007D098E099F090E94D6086C0D7D1D8E1DCB
:101220009F1DFF90EF90DF90CF900895FC012485E3
:101230003585F901E05CFF4F8081918132962081F4
:101240003181821B930B8F7399270895FC0184854C
:101250009585FC01E05CFF4F4081518132962081F1
:1012600031814217530741F00190F081E02DE80FE2
:10127000F91F808190E008958FEF9FEF0895FC01A2
:1012800084859585FC01E05CFF4F40815181329659
:10129000208131814217530779F0A081B181A80FD5
:1012A000B91F8C91208131812F5F3F4F2F733327DE
:1012B0003183208390E008958FEF9FEF0895FC0124
:1012C00081A1882329F0A489B5898C9186FFFBCF61
:1012D00011A20895CF93DF93FC0126853785D901AC
:1012E000A05CBF4F8D919C91119701968F739927A8
:1012F000E901CE5BDF4F4881598184179507D9F307
:101300000D90BC91A02DA20FB31F6C93A685B7853D
:10131000A05CBF4F11969C938E93A689B7892C91A0
:1013200081E090E0078C02C0880F991F0A94E2F7D1
:10133000282B2C9381E081A30488F589E02D8081FE
:101340008064808381E090E0DF91CF9108950895DB
:101350001F920F920FB60F9211242F933F934F932A
:101360008F939F93EF93FF938091C00082FD1CC0E9
:101370004091C6008091FC019091FD0101968F7310
:1013800099272091FE013091FF018217930771F098
:10139000E091FC01F091FD01E454FE4F40839093F5
:1013A000FD018093FC0102C08091C600FF91EF9186
:1013B0009F918F914F913F912F910F900FBE0F9062
:1013C0001F90189586E591E00E941609892B11F06F
:1013D0000C94A70908951F920F920FB60F92112433
:1013E0002F933F938F939F93EF93FF932091B80197
:1013F0003091B9018091BA019091BB01281739074A
:1014000031F48091C1008F7D8093C10014C0E091C0
:10141000BA01F091BB01E858FE4F20818091BA01DA
:101420009091BB0101968F7399279093BB01809394
:10143000BA012093C600FF91EF919F918F913F9148
:101440002F910F900FBE0F901F901895CF92DF92A3
:10145000EF92FF92CF93DF93EC016A017B0141157C
:1014600081EE580761057105F9F0EC89FD8981E08D
:1014700090E008A002C0880F991F0A94E2F78083C9
:1014800060E079E08DE390E0A70196010E94B20B45
:1014900021503109410951095695479537952795AE
:1014A000211580E1380798F0EC89FD89108260E809
:1014B00074E88EE190E0A70196010E94B20B2150E2
:1014C0003109410951095695479537952795E8897E
:1014D000F9893083EA89FB89208319A2EE89FF8983
:1014E000408181E090E09C010C8C02C0220F331FF0
:1014F0000A94E2F7422B4083EE89FF8940819C01E8
:101500000D8C02C0220F331F0A94E2F7422B408356
:10151000EE89FF8940819C010E8C02C0220F331F8F
:101520000A94E2F7422B4083EE89FF8920810F8CD9
:1015300002C0880F991F0A94E2F780958223808366
:10154000DF91CF91FF90EF90DF90CF9008951092B0
:1015500059011092580188EE93E0A0E0B0E080932A
:101560005A0190935B01A0935C01B0935D018AE105
:1015700091E090935701809356018CEB91E090930A
:1015800063018093620188E791E090936501809305
:10159000640185EC90E0909367018093660184EC90
:1015A00090E0909369018093680180EC90E09093C3
:1015B0006B0180936A0181EC90E090936D018093C0
:1015C0006C0182EC90E090936F0180936E0186EC49
:1015D00090E0909371018093700184E08093720198
:1015E00083E08093730187E08093740185E08093AA
:1015F000750181E08093760108958F929F92AF925A
:10160000BF92CF92DF92EF92FF92CF93DF93EC01E4
:10161000688179818A819B816115710581059105B8
:1016200021F464E279ED8BE597E02DE133EF41E0C1
:1016300050E00E94D40B49015A019B01AC01A7EA7A
:10164000B1E40E94F30B6B017C01ACEEB4EFA50199
:1016500094010E94010CC60ED71EE81EF91EF7FE6B
:1016600006C081E0C81AD108E10880E8F80AC882FB
:10167000D982EA82FB82C701B6019F77DF91CF91C1
:10168000FF90EF90DF90CF90BF90AF909F908F90A2
:1016900008950E94FD0A089580E091E00E94FD0AED
:1016A000089560930001709301018093020190936B
:1016B00003010895F8940C941B0C33D088F09F57C5
:1016C00090F0B92F9927B751A0F0D1F0660F771F8E
:1016D000881F991F1AF0BA95C9F712C0B13081F06E
:1016E0003AD0B1E0089537C0672F782F8827B85FC8
:1016F00039F0B93FCCF3869577956795B395D9F7CF
:101700003EF490958095709561957F4F8F4F9F4FD8
:10171000089557FD9058440F551F59F05F3F71F0E1
:101720004795880F97FB991F61F09F3F79F0879548
:101730000895121613061406551FF2CF4695F1DFD1
:1017400008C0161617061806991FF1CF8695710561
:10175000610508940895E894BB2766277727CB0195
:1017600097F90895A1E21A2EAA1BBB1BFD010DC01B
:10177000AA1FBB1FEE1FFF1FA217B307E407F50741
:1017800020F0A21BB30BE40BF50B661F771F881F1D
:10179000991F1A9469F760957095809590959B01B3
:1017A000AC01BD01CF010895052E97FB1EF40094F6
:1017B0000E94EB0B57FD07D00E94B20B07FC03D031
:1017C0004EF40C94EB0B50954095309521953F4F7E
:1017D0004F4F5F4F089590958095709561957F4F1D
:1017E0008F4F9F4F08950E940C0CA59F900DB49FA2
:1017F000900DA49F800D911D11240895B7FF0C94A6
:10180000F30B0E94F30B821B930B0895EE0FFF1F47
:101810000590F491E02D0994A29FB001B39FC001FF
:10182000A39F700D811D1124911DB29F700D811D0C
:0A1830001124911D0895F894FFCFD4
:10183A000100000001FFA4D08243A4D0A443000009
:10184A00C44300D00244000000006A097607160962
:06185A003F0926095F09A9
:00000001FF
