:100000000C948D000C94BC020C94E9020C94B50085
:100010000C94B5000C94B5000C94B5000C94FF063C
:100020000C94B5000C94B5000C94B5000C94B5007C
:100030000C94B5000C94B5000C94B5000C94B5006C
:100040000C9416030C94B5000C948D090C94D009F3
:100050000C94B5000C94B5000C94B5000C94B5004C
:100060000C94B5000C94B50053544F5050454400C7
:1000700053544F505045440042616420416E7377A1
:1000800065720053544F505045440054696D656F7C
:10009000757400504C4159494E4700504C415942EB
:1000A00041434B0053657475700057696E6E6572FD
:1000B000210047616D65206F7665722100000000A8
:1000C0000700020100000304060000000000000019
:1000D00000010204081020408001020408102001E1
:1000E00002040810200404040404040404020202AC
:1000F000020202030303030303000000002300269F
:1001000000290000000000250028002B000000004E
:1001100000240027002A00028C0A11241FBECFEF02
:10012000D8E0DEBFCDBF11E0A0E0B1E0E4E0F8E14F
:1001300002C005900D92A635B107D9F722E0A6E5D9
:10014000B1E001C01D92A433B207E1F711E0CAE1AA
:10015000D1E004C02297FE010E94ED0BC831D10707
:10016000C9F70E94A6080C943F0B0C9400008091E4
:100170006701882319F010926701089583E0809346
:10018000670110926101109260011092660108955A
:10019000EF92FF920F931F93CF93DF93109266011C
:1001A0000EE311E0C0E0D0E0EE24E394F12CF8017E
:1001B00081918F010E949904892B71F4C7010C2E43
:1001C00001C0880F0A94EAF7982F90952091660154
:1001D0009223982B909366012196C430D10539F76C
:1001E000DF91CF911F910F91FF90EF9008951F9392
:1001F000CF93DF93EC01FC01EE5BFE4F108161E0D9
:10020000812F0E946304FE01EE0FFF1FEE0FFF1F00
:10021000E25DFE4F60817181828193810E94420B79
:1002200024EF31E040E050E089E00E94C20464EF36
:1002300071E080E090E00E94830360E0812FDF9115
:10024000CF911F910C946304CF93DF93C0E0D0E073
:1002500080916601992787FD90950C2E02C0959597
:1002600087950A94E2F780FF03C0CE010E94F70051
:100270002196C430D10561F7DF91CF910895CF93D6
:10028000DF9362EB70E08AE891E00E94D907CAE14F
:10029000D1E0899199910E94F70081E0CE32D80790
:1002A000C1F7DF91CF910895CF93DF936AEA70E0B1
:1002B0008AE891E00E94D907C6E0D1E0899199913E
:1002C0000E94F70081E0CA31D807C1F7DF91CF91D2
:1002D0000895FF920F931F93CF93DF9368EE73E01F
:1002E00080E090E00E9483031092670140E050E0BC
:1002F00067EB70E081E00E949C0240E855E260E01C
:1003000070E08AE891E00E940B0A64EA70E08AE8F3
:1003100091E00E94D90760E08EE00E942A048EE0FE
:100320000E94E4030E94B30861E089E00E942A046D
:1003300060E083E00E942A04CEE3D1E002E411E011
:1003400060E089910E942A04F801F1908F0161E038
:100350008F2D0E942A0460E08F2D0E946304F1E03B
:10036000C234DF0769F7DF91CF911F910F91FF90A2
:100370000895CF93DF9380916701882309F4D9C052
:10038000833009F048C06BE970E08AE891E00E9490
:10039000D907C0916001D0916101CA30D10594F4B0
:1003A000CE010196909361018093600124E030E0DA
:1003B00040E050E060E070E0CB010E94DF08CA5AE4
:1003C000DE4F6883C6E5D1E08091600190916101C4
:1003D0009E0126553140281739076CF489919927D9
:1003E00087FD90950E94F7006CE271E080E090E05C
:1003F0000E948303E9CF64E670E080E090E00E9411
:1004000083031092650110926401109263011092AF
:10041000620182E07CC0823009F08BC063E970E049
:100420008AE891E00E94D9076091620170916301AE
:100430004AE050E08AE891E00E948E084AE050E0ED
:1004400068EC70E08AE891E00E948E088091620179
:10045000909163019C012F5F3F4F30936301209384
:100460006201883C910549F46BE870E08AE891E00C
:100470000E94D90763E870E02EC061E070E080E080
:1004800090E00E9483030E94C80080916601882347
:1004900009F44FC00E94240180916401909165018C
:1004A00040916601552747FD5095FC01EA5AFE4FE1
:1004B00021E030E0008002C0220F331F0A94E2F7EF
:1004C0004217530779F068E770E08AE891E00E94EC
:1004D000D90760E770E08AE891E00E94D9070E949E
:1004E0003F0125C00196909365018093640120919E
:1004F0006001309161018217930761F40A9779F0E6
:1005000064EF71E080E090E00E94830383E08093D9
:1005100067010FC010926301109262010AC068E681
:1005200070E08AE891E00E94D9070E94540110927D
:100530006701DF91CF9108958230E8F4E82FF0E071
:10054000EE0FFF1FE859FE4F71836083813041F049
:10055000809169008C7F842B80936900E89A0895CC
:1005600080916900440F551F440F551F837F842BD2
:1005700080936900E99A08951F920F920FB60F9227
:1005800011242F933F934F935F936F937F938F9398
:100590009F93AF93BF93EF93FF93809168019091E6
:1005A0006901892B29F0E0916801F09169010995B1
:1005B000FF91EF91BF91AF919F918F917F916F913B
:1005C0005F914F913F912F910F900FBE0F901F9011
:1005D00018951F920F920FB60F9211242F933F93ED
:1005E0004F935F936F937F938F939F93AF93BF933B
:1005F000EF93FF9380916A0190916B01892B29F011
:10060000E0916A01F0916B010995FF91EF91BF9123
:10061000AF919F918F917F916F915F914F913F919A
:100620002F910F900FBE0F901F9018951F920F9251
:100630000FB60F9211242F933F938F939F93AF93F5
:10064000BF9380916D0190916E01A0916F01B09167
:10065000700130916C0123E0230F2D3720F40196B7
:10066000A11DB11D05C026E8230F0296A11DB11DD5
:1006700020936C0180936D0190936E01A0936F01A4
:10068000B09370018091710190917201A0917301FA
:10069000B09174010196A11DB11D809371019093D9
:1006A0007201A0937301B0937401BF91AF919F91B8
:1006B0008F913F912F910F900FBE0F901F90189523
:1006C0003FB7F8948091710190917201A0917301EC
:1006D000B091740126B5A89B05C02F3F19F0019673
:1006E000A11DB11D3FBF6627782F892F9A2F620F5A
:1006F000711D811D911D42E0660F771F881F991F94
:100700004A95D1F70895CF92DF92EF92FF92CF935F
:10071000DF936B017C010E946003EB01C114D104E3
:10072000E104F10479F00E9460036C1B7D0B683ECC
:100730007340A0F381E0C81AD108E108F108C8515C
:10074000DC4FECCFDF91CF91FF90EF90DF90CF9017
:100750000895789484B5826084BD84B5816084BD39
:1007600085B5826085BD85B5816085BDEEE6F0E02A
:10077000808181608083E1E8F0E010828081826086
:100780008083808181608083E0E8F0E08081816007
:100790008083E1EBF0E0808184608083E0EBF0E037
:1007A000808181608083EAE7F0E0808184608083DB
:1007B0008081826080838081816080838081806885
:1007C00080831092C10008958E3008F08E5087709B
:1007D0002091040190E4299F90011124822B8093A1
:1007E0007C0080917A00806480937A0080917A0006
:1007F00086FDFCCF809178002091790090E0922BCB
:100800000895833081F028F4813099F08230A1F08E
:1008100008958630A9F08730B9F08430D1F4809102
:1008200080008F7D03C0809180008F77809380004F
:10083000089584B58F7702C084B58F7D84BD0895F7
:100840008091B0008F7703C08091B0008F7D80933E
:10085000B0000895CF93DF9390E0FC01EF52FF4F7B
:100860002491FC01EB51FF4F8491882349F190E0E2
:10087000880F991FFC01E35FFE4FA591B4918D5F36
:100880009E4FFC01C591D4919FB7611108C0F894A7
:100890008C91209582238C93888182230AC06230B8
:1008A00051F4F8948C91322F309583238C93888166
:1008B000822B888304C0F8948C91822B8C939FBFE9
:1008C000DF91CF9108950F931F93CF93DF931F92E2
:1008D000CDB7DEB7282F30E0F901E354FF4F849104
:1008E000F901EF52FF4F1491F901EB51FF4F0491C1
:1008F0000023C9F0882321F069830E9401046981E3
:10090000E02FF0E0EE0FFF1FED5FFE4FA591B491D9
:100910009FB7F8948C91611103C01095812301C099
:10092000812B8C939FBF0F90DF91CF911F910F91DF
:100930000895CF93DF93282F30E0F901E354FF4F60
:100940008491F901EF52FF4FD491F901EB51FF4F20
:10095000C491CC2391F081110E940104EC2FF0E0AE
:10096000EE0FFF1FE750FF4FA591B4912C912D235F
:1009700081E090E021F480E002C080E090E0DF912F
:10098000CF9108953F924F925F926F927F928F9294
:100990009F92AF92BF92CF92DF92EF92FF920F930E
:1009A0001F93CF93DF9300D000D0CDB7DEB78B017C
:1009B00029013A0190910501981721F09F3F09F014
:1009C000D3C104C0E7E1F1E0349081C08093050118
:1009D000E7E1F1E0E491EF3F09F4C6C1E13031F124
:1009E000E23009F44BC0E11171C014BC15BC94B5E0
:1009F000926094BD95B5916095BD282F30E0F901C6
:100A0000EB51FF4FE491F0E0EE0FFF1FED5FFE4F63
:100A1000459154915093850140938401F901EF521F
:100A2000FF4F249120938301312C53C010928000FA
:100A30001092810090918100986090938100909134
:100A40008100916090938100282F30E0F901EB51F3
:100A5000FF4FE491F0E0EE0FFF1FED5FFE4F459179
:100A6000549150937E0140937D01F901EF52FF4F65
:100A7000249120937C01332433942BC01092B00036
:100A80001092B1009091B00092609093B00090915C
:100A9000B10091609093B100282F30E0F901EB5143
:100AA000FF4FE491F0E0EE0FFF1FED5FFE4F459129
:100AB00054915093770140937601F901EF52FF4F23
:100AC00024912093750152E0352E03C03E2E37FC51
:100AD0004BC161E00E942A044801A12CB12C832D56
:100AE0008D7F09F0C0C060E072E18AE790E0A50167
:100AF00094010E94B90B29833A834B835C8369017B
:100B00007A0181E0C81AD108E108F1089FEFC916FF
:100B1000D104E104F10409F008F49AC060E472E43D
:100B20008FE090E0A50194010E94B90B69017A0160
:100B3000E1E0CE1AD108E108F108F2E03F1219C055
:100B40008FEFC816D104E104F10409F008F487C05E
:100B500060E970ED83E090E0A50194010E94B90B7B
:100B600069017A0191E0C91AD108E108F10883E02E
:100B700001C082E0EFEFCE16D104E104F10409F0E8
:100B800008F467C068E478EE81E090E0A501940184
:100B90000E94B90B69017A01F1E0CF1AD108E1088E
:100BA000F1083320E1F082E038121BC09FEFC91634
:100BB000D104E104F10409F008F4D4C064E274EF54
:100BC00080E090E0A50194010E94B90B69017A01CF
:100BD000E1E0CE1AD108E108F10885E003C083E026
:100BE00001C084E0FFEFCF16D104E104F10489F1E4
:100BF00080F162E17AE780E090E0A50194010E9433
:100C0000B90B69017A0181E0C81AD108E108F1083D
:100C1000311002C084E001C086E09FEFC916D10404
:100C2000E104F104B1F0A8F0C980DA80EB80FC8027
:100C30009AE0F594E794D794C7949A95D1F7E1E0B8
:100C4000CE1AD108E108F108332031F087E008C05E
:100C500081E0332011F004C085E085BD34C082E01E
:100C60008093B10030C060E072E18AE790E0A501B6
:100C700094010E94B90B69017A01F1E0CF1AD10801
:100C8000E108F108C114D10481E0E806F10488F01C
:100C900068E478EE81E090E0A50194010E94B90B30
:100CA00069017A0191E0C91AD108E108F10893E0DD
:100CB00001C091E0E1E03E1206C080918100887F92
:100CC000892B80938100411451046104710471F0F7
:100CD000D801AA0FBB1FA30192010E94D80B28EED6
:100CE00033E040E050E00E94970B03C02FEF3FEF4E
:100CF000A901F1E03F16A1F082E0381619F1311098
:100D000033C0C7BC2093860130938701409388018C
:100D10005093890180916E00826080936E0024C0A0
:100D2000D0928900C092880020937F013093800187
:100D3000409381015093820180916F008260809383
:100D40006F0012C0C092B3002093780130937901F4
:100D500040937A0150937B01809170008260809370
:100D6000700002C084E07CCF0F900F900F900F9026
:100D7000DF91CF911F910F91FF90EF90DF90CF9077
:100D8000BF90AF909F908F907F906F905F904F90AB
:100D90003F900895813039F018F0823051F0089575
:100DA00010926E00089580916F008D7F80936F0088
:100DB0000895809170008D7F8093700081E0809312
:100DC000B0008091B100887F84608093B100109260
:100DD000B3000895CF93C82F809105018C1307C0ED
:100DE000E7E1F1E084919FEF9093050101C08FEF5F
:100DF0000E94CA0660E08C2FCF910C9463041F926E
:100E00000F920FB60F9211242F933F934F935F933E
:100E10006F937F938F939F93AF93BF93EF93FF93C2
:100E20008091780190917901A0917A01B0917B0134
:100E3000892B8A2B8B2B51F190917501E0917601D2
:100E4000F09177018081892780838091780190914A
:100E50007901A0917A01B0917B01181619061A0642
:100E60001B06C4F48091780190917901A0917A01D8
:100E7000B0917B010197A109B1098093780190930A
:100E80007901A0937A01B0937B0104C080910501A0
:100E90000E94EA06FF91EF91BF91AF919F918F91D0
:100EA0007F916F915F914F913F912F910F900FBE66
:100EB0000F901F901895CF92DF92EF92FF920F93B1
:100EC0001F93CF93DF936C017A01EB01E60EF71EBF
:100ED00000E010E0CE15DF0561F06991D601ED91DB
:100EE000FC910190F081E02DC6010995080F191FB2
:100EF000F1CFC801DF91CF911F910F91FF90EF903B
:100F0000DF90CF9008956115710581F0DB010D90A0
:100F10000020E9F7AD0141505109461B570BDC0198
:100F2000ED91FC910280F381E02D099480E090E046
:100F30000895EF92FF920F931F93CF93DF938C014D
:100F4000FB01C0E0D0E064917F018FEFE81AF80A5E
:100F5000662361F0D801ED91FC910190F081E02DC4
:100F6000C8010995C80FD91FF701EDCFCE01DF9158
:100F7000CF911F910F91FF90EF900895DC01ED91BB
:100F8000FC910190F081E02D09940F931F93CF9372
:100F9000DF93EC016DE00E94BE078C016AE0CE0198
:100FA0000E94BE07800F911FDF91CF911F910F917B
:100FB00008950F931F93CF93DF93EC010E9499073D
:100FC0008C01CE010E94C507800F911FDF91CF9148
:100FD0001F910F9108958F929F92AF92BF92CF92DF
:100FE000DF92EF92FF920F931F93CF93DF93CDB7D2
:100FF000DEB7A1970FB6F894DEBF0FBECDBF7C0160
:10100000C42EE52FCB01D22E19A221E02D1510F010
:101010002AE0D22E8E010F5D1F4F8D2C912CA12C1A
:10102000B12C6C2D7E2FA50194010E94970B8C2D65
:10103000D29E80191124015011098A3014F4805D68
:1010400001C0895CF80180832115310541055105F6
:1010500021F0C22EE32FCA01E4CFB801C7010E94DC
:101060008307A1960FB6F894DEBF0FBECDBFDF9108
:10107000CF911F910F91FF90EF90DF90CF90BF9095
:10108000AF909F908F900895CF92DF92EF92FF9252
:101090000F931F93CF93DF93EC016A017B0121151E
:1010A000310579F4E881F9810190F081E02D642F18
:1010B000DF91CF911F910F91FF90EF90DF90CF9034
:1010C00009942A303105E9F477FF1AC06DE20E94D5
:1010D000BE078C0144275527BA014C195D096E09DA
:1010E0007F092AE0CE010E94EB07800F911FDF915C
:1010F000CF911F910F91FF90EF90DF90CF900895C7
:101100002AE0B701A601CE01DF91CF911F910F9187
:10111000FF90EF90DF90CF900C94EB070F931F930D
:10112000CF93DF93EC019A01AB01662757FD6095E1
:10113000762F0E9444088C01CE010E94C507800FC3
:10114000911FDF91CF911F910F9108950E94A903E4
:101150000E946901C7ECD9E00E94B9012097E1F330
:101160000E94C709F9CF009729F0BC0180E090E008
:101170000C94360B0895CF93DF9300D000D0CDB7F9
:10118000DEB79B01AC01611571058105910569F020
:1011900069833A834B835C830E94310B29813A81B6
:1011A0004B815C810E94B90B03C060E070E0CB0111
:1011B0000F900F900F900F90DF91CF910895CF92E5
:1011C000DF92EF92FF926B017C0162177307840735
:1011D000950764F4CA01B9016C197D098E099F094C
:1011E0000E94BB086C0D7D1D8E1D9F1DFF90EF9012
:1011F000DF90CF900895FC0124853585F901E05CEE
:10120000FF4F80819181329620813181821B930B27
:101210008F7399270895FC0184859585FC01E05C16
:10122000FF4F40815181329620813181421753070F
:1012300041F00190F081E02DE80FF91F808190E0EE
:1012400008958FEF9FEF0895FC0184859585FC013B
:10125000E05CFF4F408151813296208131814217FD
:10126000530779F0A081B181A80FB91F8C9120811B
:1012700031812F5F3F4F2F7333273183208390E0DD
:1012800008958FEF9FEF0895FC0181A1882329F035
:10129000A489B5898C9186FFFBCF11A20895CF93C5
:1012A000DF93FC0126853785D901A05CBF4F8D9166
:1012B0009C91119701968F739927E901CE5BDF4FBF
:1012C0004881598184179507D9F30D90BC91A02DC1
:1012D000A20FB31F6C93A685B785A05CBF4F119674
:1012E0009C938E93A689B7892C9181E090E0078C1E
:1012F00002C0880F991F0A94E2F7282B2C9381E0F3
:1013000081A30488F589E02D80818064808381E059
:1013100090E0DF91CF91089508951F920F920FB63C
:101320000F9211242F933F934F938F939F93EF939B
:10133000FF938091C00082FD1CC04091C600809147
:1013400030029091310201968F73992720913202D9
:10135000309133028217930771F0E0913002F091DF
:101360003102E051FE4F408390933102809330026E
:1013700002C08091C600FF91EF919F918F914F9194
:101380003F912F910F900FBE0F901F9018958AE8F4
:1013900091E00E94FB08892B11F00C948C090895B0
:1013A0001F920F920FB60F9211242F933F938F939A
:1013B0009F93EF93FF932091EC013091ED01809189
:1013C000EE019091EF012817390731F48091C100A7
:1013D0008F7D8093C10014C0E091EE01F091EF0188
:1013E000E455FE4F20818091EE019091EF0101962E
:1013F0008F7399279093EF018093EE012093C6009D
:10140000FF91EF919F918F913F912F910F900FBE80
:101410000F901F901895CF92DF92EF92FF92CF938B
:10142000DF93EC016A017B01411581EE58076105EC
:101430007105F9F0EC89FD8981E090E008A002C017
:10144000880F991F0A94E2F7808360E079E08DE3CA
:1014500090E0A70196010E94970B215031094109A4
:1014600051095695479537952795211580E13807FD
:1014700098F0EC89FD89108260E874E88EE190E0D4
:10148000A70196010E94970B21503109410951098A
:101490005695479537952795E889F9893083EA89E4
:1014A000FB89208319A2EE89FF89408181E090E0C9
:1014B0009C010C8C02C0220F331F0A94E2F7422BCE
:1014C0004083EE89FF8940819C010D8C02C0220F70
:1014D000331F0A94E2F7422B4083EE89FF89408153
:1014E0009C010E8C02C0220F331F0A94E2F7422B9C
:1014F0004083EE89FF8920810F8C02C0880F991FDD
:101500000A94E2F7809582238083DF91CF91FF9048
:10151000EF90DF90CF90089510928D0110928C0182
:1015200088EE93E0A0E0B0E080938E0190938F016D
:10153000A0939001B09391018AE491E090938B0184
:1015400080938A0180EF91E09093970180939601B8
:101550008CEA91E0909399018093980185EC90E05A
:1015600090939B0180939A0184EC90E090939D016D
:1015700080939C0180EC90E090939F0180939E016A
:1015800081EC90E09093A1018093A00182EC90E027
:101590009093A3018093A20186EC90E09093A50123
:1015A0008093A40184E08093A60183E08093A70147
:1015B00087E08093A80185E08093A90181E0809372
:1015C000AA0108958F929F92AF92BF92CF92DF921D
:1015D000EF92FF92CF93DF93EC01688179818A814A
:1015E0009B81611571058105910521F464E279ED16
:1015F0008BE597E02DE133EF41E050E00E94B90B1D
:1016000049015A019B01AC01A7EAB1E40E94D80B41
:101610006B017C01ACEEB4EFA50194010E94E60BD6
:10162000C60ED71EE81EF91EF7FE06C081E0C81AD6
:10163000D108E10880E8F80AC882D982EA82FB82F0
:10164000C701B6019F77DF91CF91FF90EF90DF90B8
:10165000CF90BF90AF909F908F9008950E94E20A24
:10166000089580E091E00E94E20A089560930001ED
:101670007093010180930201909303010895F894FF
:101680000C94000C33D088F09F5790F0B92F992715
:10169000B751A0F0D1F0660F771F881F991F1AF07D
:1016A000BA95C9F712C0B13081F03AD0B1E00895CF
:1016B00037C0672F782F8827B85F39F0B93FCCF350
:1016C000869577956795B395D9F73EF49095809573
:1016D000709561957F4F8F4F9F4F089557FD90589C
:1016E000440F551F59F05F3F71F04795880F97FBE6
:1016F000991F61F09F3F79F08795089512161306A0
:101700001406551FF2CF4695F1DF08C016161706CE
:101710001806991FF1CF8695710561050894089503
:10172000E894BB2766277727CB0197F90895A1E2B4
:101730001A2EAA1BBB1BFD010DC0AA1FBB1FEE1F4B
:10174000FF1FA217B307E407F50720F0A21BB30B96
:10175000E40BF50B661F771F881F991F1A9469F712
:1017600060957095809590959B01AC01BD01CF016E
:101770000895052E97FB1EF400940E94D00B57FD90
:1017800007D00E94970B07FC03D04EF40C94D00BAB
:1017900050954095309521953F4F4F4F5F4F08959D
:1017A00090958095709561957F4F8F4F9F4F0895CD
:1017B0000E94F10BA59F900DB49F900DA49F800DEA
:1017C000911D11240895B7FF0C94D80B0E94D80BDB
:1017D000821B930B0895EE0FFF1F0590F491E02DEF
:1017E0000994A29FB001B39FC001A39F700D811DFA
:1017F0001124911DB29F700D811D1124911D08951A
:04180000F894FFCF8A
:101804000100000001FF00000300010001000200CC
:1018140001000300020000000000000001000300BA
:101824000200010002000300010002000000A4D035
:101834008243A4D0A4430000C44300D0024405075B
:1018440006080A0B0204000000004F095B07FB08AE
:0618540024090B09440900
:00000001FF
